:1000000045C0000060C000005EC000005CC0000091
:100010005AC0000058C0000056C0000054C0000084
:1000200052C0000050C000004EC000004CC0000094
:100030002DC2000048C0000046C0000044C00000BF
:1000400042C0000040C000003EC000003CC00000B4
:100050003AC0000038C0000036C0000034C00000C4
:1000600032C0000030C000002EC000002CC00000D4
:100070002AC0000028C0000026C0000024C00000E4
:1000800022C0000020C000001EC0000011241FBEBE
:10009000CFEFD0E1DEBFCDBF11E0A0E0B1E0E4E7FB
:1000A000FDE000E00BBF02C007900D92AA30B1073F
:1000B000D9F72FE0AAE0B1E001C01D92AA31B20742
:1000C000E1F748D655C69CCFFC0103969283818305
:1000D0002FEF3FEF34832383968385839087878335
:1000E00010820895FC01118610860895CF93DF9346
:1000F0009C01FB01DC011196CD91DC911297D38319
:10010000C2838C819D81958384838C819D81DC0158
:1001100013967C936E9312977D836C83318720872F
:10012000F90180818F5F8083DF91CF9108950F93D4
:100130001F93CF93DF938C01FB01808191818F3FCF
:100140002FEF920721F4E801AF81B8850EC0D801E6
:10015000139612962D913C911397E901488159818C
:100160008417950710F0D901F4CF12968D919C91C8
:10017000139793838283EC01FD83EC83B583A4837F
:100180001396FC93EE93129711870087F8018081F4
:100190008F5F8083DF91CF911F910F910895CF934F
:1001A000DF93FC01A085B185828193812481358113
:1001B000EC013D832C83C481D5819B838A83119676
:1001C0008D919C911297E817F90721F41296DC9310
:1001D000CE931197118610868C9181508C938C91BF
:1001E000DF91CF91089531E1FC013083319722E214
:1001F00020833197A3E3A083319760833197708385
:1002000031971082319760E860833197108231977F
:1002100062E06083319763E06083319764E06083DC
:10022000319765E06083319766E06083319767E0DE
:100230006083319768E06083319769E0608331972C
:1002400060E1608331973083319732E130833197B9
:1002500033E13083319734E13083319735E13083B6
:10026000319736E13083319737E13083319738E188
:100270003083319739E13083319730E230833197E1
:1002800031E2308331972083319723E22083319705
:10029000408331975083319726E22083319727E2BC
:1002A0002083319728E22083319729E220833197F8
:1002B00020E32083319721E32083869708951BBC98
:1002C00082E78ABD8BE08EBD87B7806187BFA09132
:1002D000180FB091190FCD91CDBFDD91DEBFFF9109
:1002E000EF91DF91CF91BF91AF919F918F917F91CE
:1002F0006F915F914F913F912F911F910F91FF90BF
:10030000EF90DF90CF90BF90AF909F908F907F90B5
:100310006F905F904F903F902F901F900F900FBE67
:100320000F90089581E008950F920FB6F8940F9200
:100330001F9211242F923F924F925F926F927F9261
:100340008F929F92AF92BF92CF92DF92EF92FF92E5
:100350000F931F932F933F934F935F936F937F93CD
:100360008F939F93AF93BF93CF93DF93EF93FF93BD
:10037000A091180FB091190F0DB60D920EB60D92F7
:100380008DD4A091180FB091190FCD91CDBFDD91F3
:10039000DEBFFF91EF91DF91CF91BF91AF919F9120
:1003A0008F917F916F915F914F913F912F911F910D
:1003B0000F91FF90EF90DF90CF90BF90AF909F9004
:1003C0008F907F906F905F904F903F902F901F90F5
:1003D0000F900FBE0F9008950F920FB6F8940F92E2
:1003E0001F9211242F923F924F925F926F927F92B1
:1003F0008F929F92AF92BF92CF92DF92EF92FF9235
:100400000F931F932F933F934F935F936F937F931C
:100410008F939F93AF93BF93CF93DF93EF93FF930C
:10042000A091180FB091190F0DB60D920EB60D9246
:10043000E8D2811133D4A091180FB091190FCD914A
:10044000CDBFDD91DEBFFF91EF91DF91CF91BF91E5
:10045000AF919F918F917F916F915F914F913F915C
:100460002F911F910F91FF90EF90DF90CF90BF9051
:10047000AF909F908F907F906F905F904F903F9044
:100480002F901F900F900FBE0F900895A5DF189525
:10049000CF93DF93FC01A6E1B1E0CD91DC91119700
:1004A000CE17DF0710F4DE01F8CF12968D919C91E4
:1004B00013979D01280F391FE217F30749F4228192
:1004C0003381820F931F13969C938E931297FD0195
:1004D000828193819F01280F391FC217D30791F49E
:1004E0002091140130911501C217D30759F02A81C8
:1004F0003B81820F931F93838283888199819183AB
:10050000808302C0D183C083EA17FB0711F0ED930B
:10051000FC93DF91CF910895CF92DF92EF92FF92FB
:100520000F931F93CF93DF93EC015BD28091140163
:1005300090911501892B81F58AE191E09093170143
:1005400080931601109219011092180122EC3EE0DE
:1005500030931501209314011092C50E1092C40E11
:100560001092C30E1092C20E88EA9DE090931D0176
:1005700080931C0130931B0120931A019093110169
:1005800080931001909313018093120180E090E812
:1005900090930B0180930A01C0900A01D0900B0147
:1005A000C6018C239D23892B09F064C0209709F490
:1005B00061C09E012C5F3F4F09F45CC0E0901201C6
:1005C000F0901301E216F30608F454C0C09116012E
:1005D000D0911701E6E1F1E04A815B8142175307B0
:1005E00040F08091140190911501C817D90741F48A
:1005F00041C0888199810097A1F3FE01EC01ECCF05
:10060000008111810C5F1F4F8881998191838083C4
:10061000421B530B4930510548F0CE01820F931F06
:10062000FC01538342833B832A8332DF2A813B814F
:10063000C701821B930B9093130180931201409189
:100640001001509111018417950720F49093110126
:1006500080931001C22AD32ADB82CA8219821882AF
:1006600080910E0190910F01019690930F0180935C
:100670000E0102C000E010E071D2C801DF91CF91FD
:100680001F910F91FF90EF90DF90CF900895CF933F
:10069000DF93009791F1EC0124978A819B8120914F
:1006A0000A0130910B01AC0142235323452B29F160
:1006B00048815981452B09F5209530958223932354
:1006C0009B838A838ED120911201309113018A81FC
:1006D0009B81820F931F9093130180931201CE018F
:1006E000D7DE80910C0190910D01019690930D0140
:1006F00080930C01DF91CF9131C2DF91CF910895AA
:100700008091F40E8230E0F30FDEFACFE091E00E3C
:10071000F091E10E8081811103C08FEF9FEF09C03E
:10072000E091E00EF091E10E0580F681E02D8081F0
:1007300091819093CA0E8093C90E08950F931F93D1
:10074000CF93DF93EC010091D20E1091D30E8091E4
:10075000180F9091190F029622DDC00FD11FE09162
:10076000180FF091190FD383C2836091180F709105
:10077000190FC017D10758F48091DE0E9091DF0E4B
:100780006E5F7F4FDF91CF911F910F91D0CC809101
:10079000E00E9091E10E6E5F7F4FC9DC8091C90E33
:1007A0009091CA0EC817D90720F4D093CA0EC093EF
:1007B000C90EDF91CF911F910F9108954F925F92D3
:1007C0006F927F928F929F92AF92BF92CF92DF9261
:1007D000EF92FF920F93CF93DF934C016B015A017D
:1007E0002901CA0199DE3C01892B09F4C1C086E2C6
:1007F00090E092DEEC01009789F0788E6F8A21E01C
:10080000A21AB108A60CB71CC114D104C1F0BC01D6
:10081000675E7F4FF601C601089606C0C30137DF49
:10082000A7C0E817F90749F09F014191DB014D93FB
:10083000BD01D9012C912111F4CF18A201C0198E4C
:10084000043008F003E00E8B6E01B2E0CB0ED11C39
:10085000C60148DCCE010C9645DCD987C88784E008
:1008600090E0801B91099D878C87DB8BCA8B84E08D
:10087000FE01B196DF011D928A95E9F71DA2A20142
:10088000B401C501B0DC99838883E114F10419F047
:10089000F701D183C0830FB6F8940F928091D40EE4
:1008A0008F5F8093D40E8091180F9091190F892B30
:1008B00051F5D093190FC093180F8091D40E813049
:1008C00091F584EF9EE000DC8DEF9EE0FDDB86E09D
:1008D0009FE0FADB8FE09FE0F7DB8BEE9EE0F4DB3E
:1008E00082EE9EE0F1DB85ED9EE0EEDB8BEE9EE09E
:1008F0009093E10E8093E00E82EE9EE09093DF0EE7
:100900008093DE0E10C08091D00E81110CC0E0915A
:10091000180FF091190F96898E89891720F0D093BE
:10092000190FC093180F8091CB0E8F5F8093CB0E61
:100930008E899091D10E981710F48093D10EF9E022
:100940008F9FC0011124B6018C50914FCFDB0F90C7
:100950000FBE8091D00E882349F0E091180FF091DE
:10096000190F96898E89981708F4DEDC81E001C0A2
:100970008FEFDF91CF910F91FF90EF90DF90CF90AD
:10098000BF90AF909F908F907F906F905F904F90AF
:100990000895EF92FF920F9387ECE82E8EE0F82EE9
:1009A00000E020E030E045E550E060E071E080E804
:1009B00093E004DF813089F4F8942FEF3FEF309318
:1009C000CA0E2093C90E8093D00E1092D30E1092AF
:1009D000D20E0F91FF90EF9072CC0F91FF90EF909D
:1009E00008958091C60E8F5F8093C60E08950FB64E
:1009F000F8940F928091D20E9091D30E0F900FBE6B
:100A00000895CF92DF92EF92FF920F931F93CF93AF
:100A1000DF938091C60E81118DC00091D20E10918E
:100A2000D30E0F5F1F4F1093D30E0093D20E0115FC
:100A30001105B1F48091E00E9091E10E2091DE0E4F
:100A40003091DF0E3093E10E2093E00E9093DF0E95
:100A50008093DE0E8091CC0E8F5F8093CC0E56DE9D
:100A60008091C90E9091CA0EC0E00817190708F4CA
:100A70004CC0D9E0E091E00EF091E10E808181114F
:100A800003C08FEF9FEF11C0E091E00EF091E10EF7
:100A90000580F681E02DE680F780D70112968D91D2
:100AA0009C9113970817190728F49093CA0E809306
:100AB000C90E2BC06701B2E0CB0ED11CC6016FDBA3
:100AC000F70184899589892B19F0C7010C9667DB9A
:100AD000D70156968C919091D10E981710F480936F
:100AE000D10ED89FC0011124B6018C50914FFEDA6F
:100AF000E091180FF091190FD70156969C918689B5
:100B0000981708F4B7CFC1E0B5CFE091180FF09176
:100B1000190FE689B9E0EB9FF0011124EC50F14F79
:100B20008081823008F0C1E08091CD0E882361F091
:100B3000C1E00AC08091CE0E9091CF0E01969093A5
:100B4000CF0E8093CE0EC0E08C2FDF91CF911F91FE
:100B50000F91FF90EF90DF90CF900895EF92FF926A
:100B60000F931F93CF93DF930FB6F8940F9280915A
:100B7000C60E81508093C60E8091C60E882311F058
:100B800080E050C08091D40E8823D1F3C0E0D0E043
:100B900089E0F82EEE24E3948091D50E882339F174
:100BA000E091DA0EF091DB0EC681D781CE010C9672
:100BB000F6DA8E010E5F1F4FC801F1DA8E8990912F
:100BC000D10E981710F48093D10EF89EC001112415
:100BD000B8018C50914F8ADAE091180FF091190FFB
:100BE0009E8986899817C0F2E092CD0ED5CFCD2B85
:100BF00009F08CDDC091CE0ED091CF0E209759F028
:100C000011E0FFDE81111093CD0E2197D1F71092E4
:100C1000CF0E1092CE0E8091CD0E882309F4B0CF66
:100C200083DB81E00F900FBEDF91CF911F910F9179
:100C3000FF90EF9008950F931F93CF93DF938C0154
:100C4000EB01CFDE4091D20E5091D30EF8012081FE
:100C50003181C9018C0F9D1F4217530720F4821761
:100C6000930740F403C08217930730F021E0481740
:100C7000590718F020E001C021E0F801918380833A
:100C8000222319F0841B950B59DD68DF811101C007
:100C90004BDBDF91CF911F910F9108958091C60E8C
:100CA000882321F081E08093CD0E08951092CD0E1F
:100CB0008091D10E69E0482F50E0649F9001659FBC
:100CC000300D1124F901EC50F14F9081911102C0C7
:100CD0008150F1CFA181B28112960D90BC91A02DCF
:100CE000B283A1832950314FA217B30731F4129672
:100CF0002D913C9113973283218399E0949FF001C9
:100D0000959FF00D1124EC50F14F0180F281E02D00
:100D1000268137813093190F2093180F8093D10EBD
:100D20000895BA9AC29808955CDE98B384E0892742
:100D300088BB14CFCF93DF9300D0CDB7DEB7F1DF00
:100D400056DE9A838983F0DF68EE73E0CE01019668
:100D500072DFF9CFE12CF12C00E020E030E045E536
:100D600050E065E071E08AE996E028DD12DEFFCF11
:040D7000F894FFCF25
:0A0D740049444C45004C4544000082
:00000001FF
